{
	"data": {
		"bytecode": {
			"linkReferences": {},
			"object": "608060405234801561001057600080fd5b5033600160006101000a81548173ffffffffffffffffffffffffffffffffffffffff021916908373ffffffffffffffffffffffffffffffffffffffff160217905550610869806100616000396000f3fe608060405234801561001057600080fd5b506004361061004c5760003560e01c806367e8805f146100515780638da5cb5b1461006f578063aaf4389a1461008d578063d8e10cf6146100ab575b600080fd5b6100596100c7565b604051610066919061029a565b60405180910390f35b610077610155565b60405161008491906102fd565b60405180910390f35b61009561017b565b6040516100a29190610331565b60405180910390f35b6100c560048036038101906100c09190610495565b610181565b005b600280546100d49061050d565b80601f01602080910402602001604051908101604052809291908181526020018280546101009061050d565b801561014d5780601f106101225761010080835404028352916020019161014d565b820191906000526020600020905b81548152906001019060200180831161013057829003601f168201915b505050505081565b600160009054906101000a900473ffffffffffffffffffffffffffffffffffffffff1681565b60005481565b600160009054906101000a900473ffffffffffffffffffffffffffffffffffffffff1673ffffffffffffffffffffffffffffffffffffffff163373ffffffffffffffffffffffffffffffffffffffff16036101fe5780600290816101e591906106ea565b506000808154809291906101f8906107eb565b91905055505b50565b600081519050919050565b600082825260208201905092915050565b60005b8381101561023b578082015181840152602081019050610220565b8381111561024a576000848401525b50505050565b6000601f19601f8301169050919050565b600061026c82610201565b610276818561020c565b935061028681856020860161021d565b61028f81610250565b840191505092915050565b600060208201905081810360008301526102b48184610261565b905092915050565b600073ffffffffffffffffffffffffffffffffffffffff82169050919050565b60006102e7826102bc565b9050919050565b6102f7816102dc565b82525050565b600060208201905061031260008301846102ee565b92915050565b6000819050919050565b61032b81610318565b82525050565b60006020820190506103466000830184610322565b92915050565b6000604051905090565b600080fd5b600080fd5b600080fd5b600080fd5b7f4e487b7100000000000000000000000000000000000000000000000000000000600052604160045260246000fd5b6103a282610250565b810181811067ffffffffffffffff821117156103c1576103c061036a565b5b80604052505050565b60006103d461034c565b90506103e08282610399565b919050565b600067ffffffffffffffff821115610400576103ff61036a565b5b61040982610250565b9050602081019050919050565b82818337600083830152505050565b6000610438610433846103e5565b6103ca565b90508281526020810184848401111561045457610453610365565b5b61045f848285610416565b509392505050565b600082601f83011261047c5761047b610360565b5b813561048c848260208601610425565b91505092915050565b6000602082840312156104ab576104aa610356565b5b600082013567ffffffffffffffff8111156104c9576104c861035b565b5b6104d584828501610467565b91505092915050565b7f4e487b7100000000000000000000000000000000000000000000000000000000600052602260045260246000fd5b6000600282049050600182168061052557607f821691505b602082108103610538576105376104de565b5b50919050565b60008190508160005260206000209050919050565b60006020601f8301049050919050565b600082821b905092915050565b6000600883026105a07fffffffffffffffffffffffffffffffffffffffffffffffffffffffffffffffff82610563565b6105aa8683610563565b95508019841693508086168417925050509392505050565b6000819050919050565b60006105e76105e26105dd84610318565b6105c2565b610318565b9050919050565b6000819050919050565b610601836105cc565b61061561060d826105ee565b848454610570565b825550505050565b600090565b61062a61061d565b6106358184846105f8565b505050565b5b818110156106595761064e600082610622565b60018101905061063b565b5050565b601f82111561069e5761066f8161053e565b61067884610553565b81016020851015610687578190505b61069b61069385610553565b83018261063a565b50505b505050565b600082821c905092915050565b60006106c1600019846008026106a3565b1980831691505092915050565b60006106da83836106b0565b9150826002028217905092915050565b6106f382610201565b67ffffffffffffffff81111561070c5761070b61036a565b5b610716825461050d565b61072182828561065d565b600060209050601f8311600181146107545760008415610742578287015190505b61074c85826106ce565b8655506107b4565b601f1984166107628661053e565b60005b8281101561078a57848901518255600182019150602085019450602081019050610765565b868310156107a757848901516107a3601f8916826106b0565b8355505b6001600288020188555050505b505050505050565b7f4e487b7100000000000000000000000000000000000000000000000000000000600052601160045260246000fd5b60006107f682610318565b91507fffffffffffffffffffffffffffffffffffffffffffffffffffffffffffffffff8203610828576108276107bc565b5b60018201905091905056fea26469706673582212207c9d206b39473d5f3734162c4200990f90ec7f698c63c6972c487292eb47acb664736f6c634300080f0033",
			"opcodes": "PUSH1 0x80 PUSH1 0x40 MSTORE CALLVALUE DUP1 ISZERO PUSH2 0x10 JUMPI PUSH1 0x0 DUP1 REVERT JUMPDEST POP CALLER PUSH1 0x1 PUSH1 0x0 PUSH2 0x100 EXP DUP2 SLOAD DUP2 PUSH20 0xFFFFFFFFFFFFFFFFFFFFFFFFFFFFFFFFFFFFFFFF MUL NOT AND SWAP1 DUP4 PUSH20 0xFFFFFFFFFFFFFFFFFFFFFFFFFFFFFFFFFFFFFFFF AND MUL OR SWAP1 SSTORE POP PUSH2 0x869 DUP1 PUSH2 0x61 PUSH1 0x0 CODECOPY PUSH1 0x0 RETURN INVALID PUSH1 0x80 PUSH1 0x40 MSTORE CALLVALUE DUP1 ISZERO PUSH2 0x10 JUMPI PUSH1 0x0 DUP1 REVERT JUMPDEST POP PUSH1 0x4 CALLDATASIZE LT PUSH2 0x4C JUMPI PUSH1 0x0 CALLDATALOAD PUSH1 0xE0 SHR DUP1 PUSH4 0x67E8805F EQ PUSH2 0x51 JUMPI DUP1 PUSH4 0x8DA5CB5B EQ PUSH2 0x6F JUMPI DUP1 PUSH4 0xAAF4389A EQ PUSH2 0x8D JUMPI DUP1 PUSH4 0xD8E10CF6 EQ PUSH2 0xAB JUMPI JUMPDEST PUSH1 0x0 DUP1 REVERT JUMPDEST PUSH2 0x59 PUSH2 0xC7 JUMP JUMPDEST PUSH1 0x40 MLOAD PUSH2 0x66 SWAP2 SWAP1 PUSH2 0x29A JUMP JUMPDEST PUSH1 0x40 MLOAD DUP1 SWAP2 SUB SWAP1 RETURN JUMPDEST PUSH2 0x77 PUSH2 0x155 JUMP JUMPDEST PUSH1 0x40 MLOAD PUSH2 0x84 SWAP2 SWAP1 PUSH2 0x2FD JUMP JUMPDEST PUSH1 0x40 MLOAD DUP1 SWAP2 SUB SWAP1 RETURN JUMPDEST PUSH2 0x95 PUSH2 0x17B JUMP JUMPDEST PUSH1 0x40 MLOAD PUSH2 0xA2 SWAP2 SWAP1 PUSH2 0x331 JUMP JUMPDEST PUSH1 0x40 MLOAD DUP1 SWAP2 SUB SWAP1 RETURN JUMPDEST PUSH2 0xC5 PUSH1 0x4 DUP1 CALLDATASIZE SUB DUP2 ADD SWAP1 PUSH2 0xC0 SWAP2 SWAP1 PUSH2 0x495 JUMP JUMPDEST PUSH2 0x181 JUMP JUMPDEST STOP JUMPDEST PUSH1 0x2 DUP1 SLOAD PUSH2 0xD4 SWAP1 PUSH2 0x50D JUMP JUMPDEST DUP1 PUSH1 0x1F ADD PUSH1 0x20 DUP1 SWAP2 DIV MUL PUSH1 0x20 ADD PUSH1 0x40 MLOAD SWAP1 DUP2 ADD PUSH1 0x40 MSTORE DUP1 SWAP3 SWAP2 SWAP1 DUP2 DUP2 MSTORE PUSH1 0x20 ADD DUP3 DUP1 SLOAD PUSH2 0x100 SWAP1 PUSH2 0x50D JUMP JUMPDEST DUP1 ISZERO PUSH2 0x14D JUMPI DUP1 PUSH1 0x1F LT PUSH2 0x122 JUMPI PUSH2 0x100 DUP1 DUP4 SLOAD DIV MUL DUP4 MSTORE SWAP2 PUSH1 0x20 ADD SWAP2 PUSH2 0x14D JUMP JUMPDEST DUP3 ADD SWAP2 SWAP1 PUSH1 0x0 MSTORE PUSH1 0x20 PUSH1 0x0 KECCAK256 SWAP1 JUMPDEST DUP2 SLOAD DUP2 MSTORE SWAP1 PUSH1 0x1 ADD SWAP1 PUSH1 0x20 ADD DUP1 DUP4 GT PUSH2 0x130 JUMPI DUP3 SWAP1 SUB PUSH1 0x1F AND DUP3 ADD SWAP2 JUMPDEST POP POP POP POP POP DUP2 JUMP JUMPDEST PUSH1 0x1 PUSH1 0x0 SWAP1 SLOAD SWAP1 PUSH2 0x100 EXP SWAP1 DIV PUSH20 0xFFFFFFFFFFFFFFFFFFFFFFFFFFFFFFFFFFFFFFFF AND DUP2 JUMP JUMPDEST PUSH1 0x0 SLOAD DUP2 JUMP JUMPDEST PUSH1 0x1 PUSH1 0x0 SWAP1 SLOAD SWAP1 PUSH2 0x100 EXP SWAP1 DIV PUSH20 0xFFFFFFFFFFFFFFFFFFFFFFFFFFFFFFFFFFFFFFFF AND PUSH20 0xFFFFFFFFFFFFFFFFFFFFFFFFFFFFFFFFFFFFFFFF AND CALLER PUSH20 0xFFFFFFFFFFFFFFFFFFFFFFFFFFFFFFFFFFFFFFFF AND SUB PUSH2 0x1FE JUMPI DUP1 PUSH1 0x2 SWAP1 DUP2 PUSH2 0x1E5 SWAP2 SWAP1 PUSH2 0x6EA JUMP JUMPDEST POP PUSH1 0x0 DUP1 DUP2 SLOAD DUP1 SWAP3 SWAP2 SWAP1 PUSH2 0x1F8 SWAP1 PUSH2 0x7EB JUMP JUMPDEST SWAP2 SWAP1 POP SSTORE POP JUMPDEST POP JUMP JUMPDEST PUSH1 0x0 DUP2 MLOAD SWAP1 POP SWAP2 SWAP1 POP JUMP JUMPDEST PUSH1 0x0 DUP3 DUP3 MSTORE PUSH1 0x20 DUP3 ADD SWAP1 POP SWAP3 SWAP2 POP POP JUMP JUMPDEST PUSH1 0x0 JUMPDEST DUP4 DUP2 LT ISZERO PUSH2 0x23B JUMPI DUP1 DUP3 ADD MLOAD DUP2 DUP5 ADD MSTORE PUSH1 0x20 DUP2 ADD SWAP1 POP PUSH2 0x220 JUMP JUMPDEST DUP4 DUP2 GT ISZERO PUSH2 0x24A JUMPI PUSH1 0x0 DUP5 DUP5 ADD MSTORE JUMPDEST POP POP POP POP JUMP JUMPDEST PUSH1 0x0 PUSH1 0x1F NOT PUSH1 0x1F DUP4 ADD AND SWAP1 POP SWAP2 SWAP1 POP JUMP JUMPDEST PUSH1 0x0 PUSH2 0x26C DUP3 PUSH2 0x201 JUMP JUMPDEST PUSH2 0x276 DUP2 DUP6 PUSH2 0x20C JUMP JUMPDEST SWAP4 POP PUSH2 0x286 DUP2 DUP6 PUSH1 0x20 DUP7 ADD PUSH2 0x21D JUMP JUMPDEST PUSH2 0x28F DUP2 PUSH2 0x250 JUMP JUMPDEST DUP5 ADD SWAP2 POP POP SWAP3 SWAP2 POP POP JUMP JUMPDEST PUSH1 0x0 PUSH1 0x20 DUP3 ADD SWAP1 POP DUP2 DUP2 SUB PUSH1 0x0 DUP4 ADD MSTORE PUSH2 0x2B4 DUP2 DUP5 PUSH2 0x261 JUMP JUMPDEST SWAP1 POP SWAP3 SWAP2 POP POP JUMP JUMPDEST PUSH1 0x0 PUSH20 0xFFFFFFFFFFFFFFFFFFFFFFFFFFFFFFFFFFFFFFFF DUP3 AND SWAP1 POP SWAP2 SWAP1 POP JUMP JUMPDEST PUSH1 0x0 PUSH2 0x2E7 DUP3 PUSH2 0x2BC JUMP JUMPDEST SWAP1 POP SWAP2 SWAP1 POP JUMP JUMPDEST PUSH2 0x2F7 DUP2 PUSH2 0x2DC JUMP JUMPDEST DUP3 MSTORE POP POP JUMP JUMPDEST PUSH1 0x0 PUSH1 0x20 DUP3 ADD SWAP1 POP PUSH2 0x312 PUSH1 0x0 DUP4 ADD DUP5 PUSH2 0x2EE JUMP JUMPDEST SWAP3 SWAP2 POP POP JUMP JUMPDEST PUSH1 0x0 DUP2 SWAP1 POP SWAP2 SWAP1 POP JUMP JUMPDEST PUSH2 0x32B DUP2 PUSH2 0x318 JUMP JUMPDEST DUP3 MSTORE POP POP JUMP JUMPDEST PUSH1 0x0 PUSH1 0x20 DUP3 ADD SWAP1 POP PUSH2 0x346 PUSH1 0x0 DUP4 ADD DUP5 PUSH2 0x322 JUMP JUMPDEST SWAP3 SWAP2 POP POP JUMP JUMPDEST PUSH1 0x0 PUSH1 0x40 MLOAD SWAP1 POP SWAP1 JUMP JUMPDEST PUSH1 0x0 DUP1 REVERT JUMPDEST PUSH1 0x0 DUP1 REVERT JUMPDEST PUSH1 0x0 DUP1 REVERT JUMPDEST PUSH1 0x0 DUP1 REVERT JUMPDEST PUSH32 0x4E487B7100000000000000000000000000000000000000000000000000000000 PUSH1 0x0 MSTORE PUSH1 0x41 PUSH1 0x4 MSTORE PUSH1 0x24 PUSH1 0x0 REVERT JUMPDEST PUSH2 0x3A2 DUP3 PUSH2 0x250 JUMP JUMPDEST DUP2 ADD DUP2 DUP2 LT PUSH8 0xFFFFFFFFFFFFFFFF DUP3 GT OR ISZERO PUSH2 0x3C1 JUMPI PUSH2 0x3C0 PUSH2 0x36A JUMP JUMPDEST JUMPDEST DUP1 PUSH1 0x40 MSTORE POP POP POP JUMP JUMPDEST PUSH1 0x0 PUSH2 0x3D4 PUSH2 0x34C JUMP JUMPDEST SWAP1 POP PUSH2 0x3E0 DUP3 DUP3 PUSH2 0x399 JUMP JUMPDEST SWAP2 SWAP1 POP JUMP JUMPDEST PUSH1 0x0 PUSH8 0xFFFFFFFFFFFFFFFF DUP3 GT ISZERO PUSH2 0x400 JUMPI PUSH2 0x3FF PUSH2 0x36A JUMP JUMPDEST JUMPDEST PUSH2 0x409 DUP3 PUSH2 0x250 JUMP JUMPDEST SWAP1 POP PUSH1 0x20 DUP2 ADD SWAP1 POP SWAP2 SWAP1 POP JUMP JUMPDEST DUP3 DUP2 DUP4 CALLDATACOPY PUSH1 0x0 DUP4 DUP4 ADD MSTORE POP POP POP JUMP JUMPDEST PUSH1 0x0 PUSH2 0x438 PUSH2 0x433 DUP5 PUSH2 0x3E5 JUMP JUMPDEST PUSH2 0x3CA JUMP JUMPDEST SWAP1 POP DUP3 DUP2 MSTORE PUSH1 0x20 DUP2 ADD DUP5 DUP5 DUP5 ADD GT ISZERO PUSH2 0x454 JUMPI PUSH2 0x453 PUSH2 0x365 JUMP JUMPDEST JUMPDEST PUSH2 0x45F DUP5 DUP3 DUP6 PUSH2 0x416 JUMP JUMPDEST POP SWAP4 SWAP3 POP POP POP JUMP JUMPDEST PUSH1 0x0 DUP3 PUSH1 0x1F DUP4 ADD SLT PUSH2 0x47C JUMPI PUSH2 0x47B PUSH2 0x360 JUMP JUMPDEST JUMPDEST DUP2 CALLDATALOAD PUSH2 0x48C DUP5 DUP3 PUSH1 0x20 DUP7 ADD PUSH2 0x425 JUMP JUMPDEST SWAP2 POP POP SWAP3 SWAP2 POP POP JUMP JUMPDEST PUSH1 0x0 PUSH1 0x20 DUP3 DUP5 SUB SLT ISZERO PUSH2 0x4AB JUMPI PUSH2 0x4AA PUSH2 0x356 JUMP JUMPDEST JUMPDEST PUSH1 0x0 DUP3 ADD CALLDATALOAD PUSH8 0xFFFFFFFFFFFFFFFF DUP2 GT ISZERO PUSH2 0x4C9 JUMPI PUSH2 0x4C8 PUSH2 0x35B JUMP JUMPDEST JUMPDEST PUSH2 0x4D5 DUP5 DUP3 DUP6 ADD PUSH2 0x467 JUMP JUMPDEST SWAP2 POP POP SWAP3 SWAP2 POP POP JUMP JUMPDEST PUSH32 0x4E487B7100000000000000000000000000000000000000000000000000000000 PUSH1 0x0 MSTORE PUSH1 0x22 PUSH1 0x4 MSTORE PUSH1 0x24 PUSH1 0x0 REVERT JUMPDEST PUSH1 0x0 PUSH1 0x2 DUP3 DIV SWAP1 POP PUSH1 0x1 DUP3 AND DUP1 PUSH2 0x525 JUMPI PUSH1 0x7F DUP3 AND SWAP2 POP JUMPDEST PUSH1 0x20 DUP3 LT DUP2 SUB PUSH2 0x538 JUMPI PUSH2 0x537 PUSH2 0x4DE JUMP JUMPDEST JUMPDEST POP SWAP2 SWAP1 POP JUMP JUMPDEST PUSH1 0x0 DUP2 SWAP1 POP DUP2 PUSH1 0x0 MSTORE PUSH1 0x20 PUSH1 0x0 KECCAK256 SWAP1 POP SWAP2 SWAP1 POP JUMP JUMPDEST PUSH1 0x0 PUSH1 0x20 PUSH1 0x1F DUP4 ADD DIV SWAP1 POP SWAP2 SWAP1 POP JUMP JUMPDEST PUSH1 0x0 DUP3 DUP3 SHL SWAP1 POP SWAP3 SWAP2 POP POP JUMP JUMPDEST PUSH1 0x0 PUSH1 0x8 DUP4 MUL PUSH2 0x5A0 PUSH32 0xFFFFFFFFFFFFFFFFFFFFFFFFFFFFFFFFFFFFFFFFFFFFFFFFFFFFFFFFFFFFFFFF DUP3 PUSH2 0x563 JUMP JUMPDEST PUSH2 0x5AA DUP7 DUP4 PUSH2 0x563 JUMP JUMPDEST SWAP6 POP DUP1 NOT DUP5 AND SWAP4 POP DUP1 DUP7 AND DUP5 OR SWAP3 POP POP POP SWAP4 SWAP3 POP POP POP JUMP JUMPDEST PUSH1 0x0 DUP2 SWAP1 POP SWAP2 SWAP1 POP JUMP JUMPDEST PUSH1 0x0 PUSH2 0x5E7 PUSH2 0x5E2 PUSH2 0x5DD DUP5 PUSH2 0x318 JUMP JUMPDEST PUSH2 0x5C2 JUMP JUMPDEST PUSH2 0x318 JUMP JUMPDEST SWAP1 POP SWAP2 SWAP1 POP JUMP JUMPDEST PUSH1 0x0 DUP2 SWAP1 POP SWAP2 SWAP1 POP JUMP JUMPDEST PUSH2 0x601 DUP4 PUSH2 0x5CC JUMP JUMPDEST PUSH2 0x615 PUSH2 0x60D DUP3 PUSH2 0x5EE JUMP JUMPDEST DUP5 DUP5 SLOAD PUSH2 0x570 JUMP JUMPDEST DUP3 SSTORE POP POP POP POP JUMP JUMPDEST PUSH1 0x0 SWAP1 JUMP JUMPDEST PUSH2 0x62A PUSH2 0x61D JUMP JUMPDEST PUSH2 0x635 DUP2 DUP5 DUP5 PUSH2 0x5F8 JUMP JUMPDEST POP POP POP JUMP JUMPDEST JUMPDEST DUP2 DUP2 LT ISZERO PUSH2 0x659 JUMPI PUSH2 0x64E PUSH1 0x0 DUP3 PUSH2 0x622 JUMP JUMPDEST PUSH1 0x1 DUP2 ADD SWAP1 POP PUSH2 0x63B JUMP JUMPDEST POP POP JUMP JUMPDEST PUSH1 0x1F DUP3 GT ISZERO PUSH2 0x69E JUMPI PUSH2 0x66F DUP2 PUSH2 0x53E JUMP JUMPDEST PUSH2 0x678 DUP5 PUSH2 0x553 JUMP JUMPDEST DUP2 ADD PUSH1 0x20 DUP6 LT ISZERO PUSH2 0x687 JUMPI DUP2 SWAP1 POP JUMPDEST PUSH2 0x69B PUSH2 0x693 DUP6 PUSH2 0x553 JUMP JUMPDEST DUP4 ADD DUP3 PUSH2 0x63A JUMP JUMPDEST POP POP JUMPDEST POP POP POP JUMP JUMPDEST PUSH1 0x0 DUP3 DUP3 SHR SWAP1 POP SWAP3 SWAP2 POP POP JUMP JUMPDEST PUSH1 0x0 PUSH2 0x6C1 PUSH1 0x0 NOT DUP5 PUSH1 0x8 MUL PUSH2 0x6A3 JUMP JUMPDEST NOT DUP1 DUP4 AND SWAP2 POP POP SWAP3 SWAP2 POP POP JUMP JUMPDEST PUSH1 0x0 PUSH2 0x6DA DUP4 DUP4 PUSH2 0x6B0 JUMP JUMPDEST SWAP2 POP DUP3 PUSH1 0x2 MUL DUP3 OR SWAP1 POP SWAP3 SWAP2 POP POP JUMP JUMPDEST PUSH2 0x6F3 DUP3 PUSH2 0x201 JUMP JUMPDEST PUSH8 0xFFFFFFFFFFFFFFFF DUP2 GT ISZERO PUSH2 0x70C JUMPI PUSH2 0x70B PUSH2 0x36A JUMP JUMPDEST JUMPDEST PUSH2 0x716 DUP3 SLOAD PUSH2 0x50D JUMP JUMPDEST PUSH2 0x721 DUP3 DUP3 DUP6 PUSH2 0x65D JUMP JUMPDEST PUSH1 0x0 PUSH1 0x20 SWAP1 POP PUSH1 0x1F DUP4 GT PUSH1 0x1 DUP2 EQ PUSH2 0x754 JUMPI PUSH1 0x0 DUP5 ISZERO PUSH2 0x742 JUMPI DUP3 DUP8 ADD MLOAD SWAP1 POP JUMPDEST PUSH2 0x74C DUP6 DUP3 PUSH2 0x6CE JUMP JUMPDEST DUP7 SSTORE POP PUSH2 0x7B4 JUMP JUMPDEST PUSH1 0x1F NOT DUP5 AND PUSH2 0x762 DUP7 PUSH2 0x53E JUMP JUMPDEST PUSH1 0x0 JUMPDEST DUP3 DUP2 LT ISZERO PUSH2 0x78A JUMPI DUP5 DUP10 ADD MLOAD DUP3 SSTORE PUSH1 0x1 DUP3 ADD SWAP2 POP PUSH1 0x20 DUP6 ADD SWAP5 POP PUSH1 0x20 DUP2 ADD SWAP1 POP PUSH2 0x765 JUMP JUMPDEST DUP7 DUP4 LT ISZERO PUSH2 0x7A7 JUMPI DUP5 DUP10 ADD MLOAD PUSH2 0x7A3 PUSH1 0x1F DUP10 AND DUP3 PUSH2 0x6B0 JUMP JUMPDEST DUP4 SSTORE POP JUMPDEST PUSH1 0x1 PUSH1 0x2 DUP9 MUL ADD DUP9 SSTORE POP POP POP JUMPDEST POP POP POP POP POP POP JUMP JUMPDEST PUSH32 0x4E487B7100000000000000000000000000000000000000000000000000000000 PUSH1 0x0 MSTORE PUSH1 0x11 PUSH1 0x4 MSTORE PUSH1 0x24 PUSH1 0x0 REVERT JUMPDEST PUSH1 0x0 PUSH2 0x7F6 DUP3 PUSH2 0x318 JUMP JUMPDEST SWAP2 POP PUSH32 0xFFFFFFFFFFFFFFFFFFFFFFFFFFFFFFFFFFFFFFFFFFFFFFFFFFFFFFFFFFFFFFFF DUP3 SUB PUSH2 0x828 JUMPI PUSH2 0x827 PUSH2 0x7BC JUMP JUMPDEST JUMPDEST PUSH1 0x1 DUP3 ADD SWAP1 POP SWAP2 SWAP1 POP JUMP INVALID LOG2 PUSH5 0x6970667358 0x22 SLT KECCAK256 PUSH29 0x9D206B39473D5F3734162C4200990F90EC7F698C63C6972C487292EB47 0xAC 0xB6 PUSH5 0x736F6C6343 STOP ADDMOD 0xF STOP CALLER "
		},
		"gasEstimates": {
			"creation": {
				"codeDepositCost": "430600",
				"executionCost": "24734",
				"totalCost": "455334"
			},
			"external": {
				"changeCounter()": "2451",
				"owner()": "2514",
				"theMessage()": "infinite",
				"updatetheMessage(string)": "infinite"
			}
		},
		"methodIdentifiers": {
			"changeCounter()": "aaf4389a",
			"owner()": "8da5cb5b",
			"theMessage()": "67e8805f",
			"updatetheMessage(string)": "d8e10cf6"
		}
	},
	"abi": [
		{
			"inputs": [],
			"stateMutability": "nonpayable",
			"type": "constructor"
		},
		{
			"inputs": [],
			"name": "changeCounter",
			"outputs": [
				{
					"internalType": "uint256",
					"name": "",
					"type": "uint256"
				}
			],
			"stateMutability": "view",
			"type": "function"
		},
		{
			"inputs": [],
			"name": "owner",
			"outputs": [
				{
					"internalType": "address",
					"name": "",
					"type": "address"
				}
			],
			"stateMutability": "view",
			"type": "function"
		},
		{
			"inputs": [],
			"name": "theMessage",
			"outputs": [
				{
					"internalType": "string",
					"name": "",
					"type": "string"
				}
			],
			"stateMutability": "view",
			"type": "function"
		},
		{
			"inputs": [
				{
					"internalType": "string",
					"name": "_newMessage",
					"type": "string"
				}
			],
			"name": "updatetheMessage",
			"outputs": [],
			"stateMutability": "nonpayable",
			"type": "function"
		}
	]
}